{
    "_format": "hh-sol-artifact-1",
    "contractName": "NFTMarketplace",
    "sourceName": "contracts/nftmarketplace.sol",
    "abi": [
        {
            "inputs": [],
            "stateMutability": "nonpayable",
            "type": "constructor"
        },
        {
            "inputs": [
                {
                    "internalType": "address",
                    "name": "sender",
                    "type": "address"
                },
                {
                    "internalType": "uint256",
                    "name": "tokenId",
                    "type": "uint256"
                },
                {
                    "internalType": "address",
                    "name": "owner",
                    "type": "address"
                }
            ],
            "name": "ERC721IncorrectOwner",
            "type": "error"
        },
        {
            "inputs": [
                {
                    "internalType": "address",
                    "name": "operator",
                    "type": "address"
                },
                {
                    "internalType": "uint256",
                    "name": "tokenId",
                    "type": "uint256"
                }
            ],
            "name": "ERC721InsufficientApproval",
            "type": "error"
        },
        {
            "inputs": [
                {
                    "internalType": "address",
                    "name": "approver",
                    "type": "address"
                }
            ],
            "name": "ERC721InvalidApprover",
            "type": "error"
        },
        {
            "inputs": [
                {
                    "internalType": "address",
                    "name": "operator",
                    "type": "address"
                }
            ],
            "name": "ERC721InvalidOperator",
            "type": "error"
        },
        {
            "inputs": [
                {
                    "internalType": "address",
                    "name": "owner",
                    "type": "address"
                }
            ],
            "name": "ERC721InvalidOwner",
            "type": "error"
        },
        {
            "inputs": [
                {
                    "internalType": "address",
                    "name": "receiver",
                    "type": "address"
                }
            ],
            "name": "ERC721InvalidReceiver",
            "type": "error"
        },
        {
            "inputs": [
                {
                    "internalType": "address",
                    "name": "sender",
                    "type": "address"
                }
            ],
            "name": "ERC721InvalidSender",
            "type": "error"
        },
        {
            "inputs": [
                {
                    "internalType": "uint256",
                    "name": "tokenId",
                    "type": "uint256"
                }
            ],
            "name": "ERC721NonexistentToken",
            "type": "error"
        },
        {
            "anonymous": false,
            "inputs": [
                {
                    "indexed": true,
                    "internalType": "address",
                    "name": "owner",
                    "type": "address"
                },
                {
                    "indexed": true,
                    "internalType": "address",
                    "name": "approved",
                    "type": "address"
                },
                {
                    "indexed": true,
                    "internalType": "uint256",
                    "name": "tokenId",
                    "type": "uint256"
                }
            ],
            "name": "Approval",
            "type": "event"
        },
        {
            "anonymous": false,
            "inputs": [
                {
                    "indexed": true,
                    "internalType": "address",
                    "name": "owner",
                    "type": "address"
                },
                {
                    "indexed": true,
                    "internalType": "address",
                    "name": "operator",
                    "type": "address"
                },
                {
                    "indexed": false,
                    "internalType": "bool",
                    "name": "approved",
                    "type": "bool"
                }
            ],
            "name": "ApprovalForAll",
            "type": "event"
        },
        {
            "anonymous": false,
            "inputs": [
                {
                    "indexed": false,
                    "internalType": "uint256",
                    "name": "_fromTokenId",
                    "type": "uint256"
                },
                {
                    "indexed": false,
                    "internalType": "uint256",
                    "name": "_toTokenId",
                    "type": "uint256"
                }
            ],
            "name": "BatchMetadataUpdate",
            "type": "event"
        },
        {
            "anonymous": false,
            "inputs": [
                {
                    "indexed": false,
                    "internalType": "uint256",
                    "name": "_tokenId",
                    "type": "uint256"
                }
            ],
            "name": "MetadataUpdate",
            "type": "event"
        },
        {
            "anonymous": false,
            "inputs": [
                {
                    "indexed": true,
                    "internalType": "uint256",
                    "name": "tokenId",
                    "type": "uint256"
                },
                {
                    "indexed": false,
                    "internalType": "address",
                    "name": "owner",
                    "type": "address"
                },
                {
                    "indexed": false,
                    "internalType": "address",
                    "name": "seller",
                    "type": "address"
                },
                {
                    "indexed": false,
                    "internalType": "uint256",
                    "name": "price",
                    "type": "uint256"
                },
                {
                    "indexed": false,
                    "internalType": "bool",
                    "name": "currentlyListed",
                    "type": "bool"
                }
            ],
            "name": "TokenListedSuccess",
            "type": "event"
        },
        {
            "anonymous": false,
            "inputs": [
                {
                    "indexed": true,
                    "internalType": "address",
                    "name": "from",
                    "type": "address"
                },
                {
                    "indexed": true,
                    "internalType": "address",
                    "name": "to",
                    "type": "address"
                },
                {
                    "indexed": true,
                    "internalType": "uint256",
                    "name": "tokenId",
                    "type": "uint256"
                }
            ],
            "name": "Transfer",
            "type": "event"
        },
        {
            "inputs": [
                {
                    "internalType": "address",
                    "name": "to",
                    "type": "address"
                },
                {
                    "internalType": "uint256",
                    "name": "tokenId",
                    "type": "uint256"
                }
            ],
            "name": "approve",
            "outputs": [],
            "stateMutability": "nonpayable",
            "type": "function"
        },
        {
            "inputs": [
                {
                    "internalType": "address",
                    "name": "owner",
                    "type": "address"
                }
            ],
            "name": "balanceOf",
            "outputs": [
                {
                    "internalType": "uint256",
                    "name": "",
                    "type": "uint256"
                }
            ],
            "stateMutability": "view",
            "type": "function"
        },
        {
            "inputs": [
                {
                    "internalType": "string",
                    "name": "tokenURI",
                    "type": "string"
                },
                {
                    "internalType": "uint256",
                    "name": "price",
                    "type": "uint256"
                }
            ],
            "name": "createToken",
            "outputs": [
                {
                    "internalType": "uint256",
                    "name": "",
                    "type": "uint256"
                }
            ],
            "stateMutability": "payable",
            "type": "function"
        },
        {
            "inputs": [
                {
                    "internalType": "uint256",
                    "name": "tokenId",
                    "type": "uint256"
                }
            ],
            "name": "executeSale",
            "outputs": [],
            "stateMutability": "payable",
            "type": "function"
        },
        {
            "inputs": [],
            "name": "getAllNFTs",
            "outputs": [
                {
                    "components": [
                        {
                            "internalType": "uint256",
                            "name": "tokenId",
                            "type": "uint256"
                        },
                        {
                            "internalType": "address payable",
                            "name": "owner",
                            "type": "address"
                        },
                        {
                            "internalType": "address payable",
                            "name": "seller",
                            "type": "address"
                        },
                        {
                            "internalType": "uint256",
                            "name": "price",
                            "type": "uint256"
                        },
                        {
                            "internalType": "bool",
                            "name": "currentlyListed",
                            "type": "bool"
                        }
                    ],
                    "internalType": "struct NFTMarketplace.ListedToken[]",
                    "name": "",
                    "type": "tuple[]"
                }
            ],
            "stateMutability": "view",
            "type": "function"
        },
        {
            "inputs": [
                {
                    "internalType": "uint256",
                    "name": "tokenId",
                    "type": "uint256"
                }
            ],
            "name": "getApproved",
            "outputs": [
                {
                    "internalType": "address",
                    "name": "",
                    "type": "address"
                }
            ],
            "stateMutability": "view",
            "type": "function"
        },
        {
            "inputs": [],
            "name": "getCurrentToken",
            "outputs": [
                {
                    "internalType": "uint256",
                    "name": "",
                    "type": "uint256"
                }
            ],
            "stateMutability": "view",
            "type": "function"
        },
        {
            "inputs": [],
            "name": "getLatestIdToListedToken",
            "outputs": [
                {
                    "components": [
                        {
                            "internalType": "uint256",
                            "name": "tokenId",
                            "type": "uint256"
                        },
                        {
                            "internalType": "address payable",
                            "name": "owner",
                            "type": "address"
                        },
                        {
                            "internalType": "address payable",
                            "name": "seller",
                            "type": "address"
                        },
                        {
                            "internalType": "uint256",
                            "name": "price",
                            "type": "uint256"
                        },
                        {
                            "internalType": "bool",
                            "name": "currentlyListed",
                            "type": "bool"
                        }
                    ],
                    "internalType": "struct NFTMarketplace.ListedToken",
                    "name": "",
                    "type": "tuple"
                }
            ],
            "stateMutability": "view",
            "type": "function"
        },
        {
            "inputs": [],
            "name": "getListPrice",
            "outputs": [
                {
                    "internalType": "uint256",
                    "name": "",
                    "type": "uint256"
                }
            ],
            "stateMutability": "view",
            "type": "function"
        },
        {
            "inputs": [
                {
                    "internalType": "uint256",
                    "name": "tokenId",
                    "type": "uint256"
                }
            ],
            "name": "getListedTokenForId",
            "outputs": [
                {
                    "components": [
                        {
                            "internalType": "uint256",
                            "name": "tokenId",
                            "type": "uint256"
                        },
                        {
                            "internalType": "address payable",
                            "name": "owner",
                            "type": "address"
                        },
                        {
                            "internalType": "address payable",
                            "name": "seller",
                            "type": "address"
                        },
                        {
                            "internalType": "uint256",
                            "name": "price",
                            "type": "uint256"
                        },
                        {
                            "internalType": "bool",
                            "name": "currentlyListed",
                            "type": "bool"
                        }
                    ],
                    "internalType": "struct NFTMarketplace.ListedToken",
                    "name": "",
                    "type": "tuple"
                }
            ],
            "stateMutability": "view",
            "type": "function"
        },
        {
            "inputs": [],
            "name": "getMyNFTs",
            "outputs": [
                {
                    "components": [
                        {
                            "internalType": "uint256",
                            "name": "tokenId",
                            "type": "uint256"
                        },
                        {
                            "internalType": "address payable",
                            "name": "owner",
                            "type": "address"
                        },
                        {
                            "internalType": "address payable",
                            "name": "seller",
                            "type": "address"
                        },
                        {
                            "internalType": "uint256",
                            "name": "price",
                            "type": "uint256"
                        },
                        {
                            "internalType": "bool",
                            "name": "currentlyListed",
                            "type": "bool"
                        }
                    ],
                    "internalType": "struct NFTMarketplace.ListedToken[]",
                    "name": "",
                    "type": "tuple[]"
                }
            ],
            "stateMutability": "view",
            "type": "function"
        },
        {
            "inputs": [
                {
                    "internalType": "address",
                    "name": "owner",
                    "type": "address"
                },
                {
                    "internalType": "address",
                    "name": "operator",
                    "type": "address"
                }
            ],
            "name": "isApprovedForAll",
            "outputs": [
                {
                    "internalType": "bool",
                    "name": "",
                    "type": "bool"
                }
            ],
            "stateMutability": "view",
            "type": "function"
        },
        {
            "inputs": [],
            "name": "name",
            "outputs": [
                {
                    "internalType": "string",
                    "name": "",
                    "type": "string"
                }
            ],
            "stateMutability": "view",
            "type": "function"
        },
        {
            "inputs": [
                {
                    "internalType": "uint256",
                    "name": "tokenId",
                    "type": "uint256"
                }
            ],
            "name": "ownerOf",
            "outputs": [
                {
                    "internalType": "address",
                    "name": "",
                    "type": "address"
                }
            ],
            "stateMutability": "view",
            "type": "function"
        },
        {
            "inputs": [
                {
                    "internalType": "address",
                    "name": "from",
                    "type": "address"
                },
                {
                    "internalType": "address",
                    "name": "to",
                    "type": "address"
                },
                {
                    "internalType": "uint256",
                    "name": "tokenId",
                    "type": "uint256"
                }
            ],
            "name": "safeTransferFrom",
            "outputs": [],
            "stateMutability": "nonpayable",
            "type": "function"
        },
        {
            "inputs": [
                {
                    "internalType": "address",
                    "name": "from",
                    "type": "address"
                },
                {
                    "internalType": "address",
                    "name": "to",
                    "type": "address"
                },
                {
                    "internalType": "uint256",
                    "name": "tokenId",
                    "type": "uint256"
                },
                {
                    "internalType": "bytes",
                    "name": "data",
                    "type": "bytes"
                }
            ],
            "name": "safeTransferFrom",
            "outputs": [],
            "stateMutability": "nonpayable",
            "type": "function"
        },
        {
            "inputs": [
                {
                    "internalType": "address",
                    "name": "operator",
                    "type": "address"
                },
                {
                    "internalType": "bool",
                    "name": "approved",
                    "type": "bool"
                }
            ],
            "name": "setApprovalForAll",
            "outputs": [],
            "stateMutability": "nonpayable",
            "type": "function"
        },
        {
            "inputs": [
                {
                    "internalType": "bytes4",
                    "name": "interfaceId",
                    "type": "bytes4"
                }
            ],
            "name": "supportsInterface",
            "outputs": [
                {
                    "internalType": "bool",
                    "name": "",
                    "type": "bool"
                }
            ],
            "stateMutability": "view",
            "type": "function"
        },
        {
            "inputs": [],
            "name": "symbol",
            "outputs": [
                {
                    "internalType": "string",
                    "name": "",
                    "type": "string"
                }
            ],
            "stateMutability": "view",
            "type": "function"
        },
        {
            "inputs": [
                {
                    "internalType": "uint256",
                    "name": "tokenId",
                    "type": "uint256"
                }
            ],
            "name": "tokenURI",
            "outputs": [
                {
                    "internalType": "string",
                    "name": "",
                    "type": "string"
                }
            ],
            "stateMutability": "view",
            "type": "function"
        },
        {
            "inputs": [
                {
                    "internalType": "address",
                    "name": "from",
                    "type": "address"
                },
                {
                    "internalType": "address",
                    "name": "to",
                    "type": "address"
                },
                {
                    "internalType": "uint256",
                    "name": "tokenId",
                    "type": "uint256"
                }
            ],
            "name": "transferFrom",
            "outputs": [],
            "stateMutability": "nonpayable",
            "type": "function"
        },
        {
            "inputs": [
                {
                    "internalType": "uint256",
                    "name": "_listPrice",
                    "type": "uint256"
                }
            ],
            "name": "updateListPrice",
            "outputs": [],
            "stateMutability": "payable",
            "type": "function"
        }
    ],
    "bytecode": "0x6080604052662386f26fc10000600a553480156200001c57600080fd5b506040518060400160405280600e81526020017f4e46544d61726b6574706c6163650000000000000000000000000000000000008152506040518060400160405280600481526020017f4e46544d0000000000000000000000000000000000000000000000000000000081525081600090816200009a919062000370565b508060019081620000ac919062000370565b50505033600760006101000a81548173ffffffffffffffffffffffffffffffffffffffff021916908373ffffffffffffffffffffffffffffffffffffffff16021790555062000457565b600081519050919050565b7f4e487b7100000000000000000000000000000000000000000000000000000000600052604160045260246000fd5b7f4e487b7100000000000000000000000000000000000000000000000000000000600052602260045260246000fd5b600060028204905060018216806200017857607f821691505b6020821081036200018e576200018d62000130565b5b50919050565b60008190508160005260206000209050919050565b60006020601f8301049050919050565b600082821b905092915050565b600060088302620001f87fffffffffffffffffffffffffffffffffffffffffffffffffffffffffffffffff82620001b9565b620002048683620001b9565b95508019841693508086168417925050509392505050565b6000819050919050565b6000819050919050565b6000620002516200024b62000245846200021c565b62000226565b6200021c565b9050919050565b6000819050919050565b6200026d8362000230565b620002856200027c8262000258565b848454620001c6565b825550505050565b600090565b6200029c6200028d565b620002a981848462000262565b505050565b5b81811015620002d157620002c560008262000292565b600181019050620002af565b5050565b601f8211156200032057620002ea8162000194565b620002f584620001a9565b8101602085101562000305578190505b6200031d6200031485620001a9565b830182620002ae565b50505b505050565b600082821c905092915050565b6000620003456000198460080262000325565b1980831691505092915050565b600062000360838362000332565b9150826002028217905092915050565b6200037b82620000f6565b67ffffffffffffffff81111562000397576200039662000101565b5b620003a382546200015f565b620003b0828285620002d5565b600060209050601f831160018114620003e85760008415620003d3578287015190505b620003df858262000352565b8655506200044f565b601f198416620003f88662000194565b60005b828110156200042257848901518255600182019150602085019450602081019050620003fb565b868310156200044257848901516200043e601f89168262000332565b8355505b6001600288020188555050505b505050505050565b61395480620004676000396000f3fe6080604052600436106101355760003560e01c80638e264590116100ab578063c322579c1161006f578063c322579c14610430578063c87b56dd1461044c578063d1a88ae514610489578063e0391b09146104b4578063e985e9c5146104df578063ef2d17461461051c57610135565b80638e2645901461035a57806395d89b41146103975780639b1225c4146103c2578063a22cb465146103de578063b88d4fde1461040757610135565b806342842e0e116100fd57806342842e0e14610231578063629cb2e41461025a5780636352211e1461028557806368f1945f146102c257806370a08231146102ed57806372b3b6201461032a57610135565b806301ffc9a71461013a57806306fdde0314610177578063081812fc146101a2578063095ea7b3146101df57806323b872dd14610208575b600080fd5b34801561014657600080fd5b50610161600480360381019061015c91906128c1565b610547565b60405161016e9190612909565b60405180910390f35b34801561018357600080fd5b5061018c6105a8565b60405161019991906129b4565b60405180910390f35b3480156101ae57600080fd5b506101c960048036038101906101c49190612a0c565b61063a565b6040516101d69190612a7a565b60405180910390f35b3480156101eb57600080fd5b5061020660048036038101906102019190612ac1565b610656565b005b34801561021457600080fd5b5061022f600480360381019061022a9190612b01565b61066c565b005b34801561023d57600080fd5b5061025860048036038101906102539190612b01565b61076e565b005b34801561026657600080fd5b5061026f61078e565b60405161027c9190612caa565b60405180910390f35b34801561029157600080fd5b506102ac60048036038101906102a79190612a0c565b610b5c565b6040516102b99190612a7a565b60405180910390f35b3480156102ce57600080fd5b506102d7610b6e565b6040516102e49190612cdb565b60405180910390f35b3480156102f957600080fd5b50610314600480360381019061030f9190612cf6565b610b78565b6040516103219190612cdb565b60405180910390f35b610344600480360381019061033f9190612e58565b610c32565b6040516103519190612cdb565b60405180910390f35b34801561036657600080fd5b50610381600480360381019061037c9190612a0c565b610d02565b60405161038e9190612f1c565b60405180910390f35b3480156103a357600080fd5b506103ac610e0a565b6040516103b991906129b4565b60405180910390f35b6103dc60048036038101906103d79190612a0c565b610e9c565b005b3480156103ea57600080fd5b5061040560048036038101906104009190612f63565b61109c565b005b34801561041357600080fd5b5061042e60048036038101906104299190613044565b6110b2565b005b61044a60048036038101906104459190612a0c565b6110cf565b005b34801561045857600080fd5b50610473600480360381019061046e9190612a0c565b611169565b60405161048091906129b4565b60405180910390f35b34801561049557600080fd5b5061049e61127c565b6040516104ab9190612f1c565b60405180910390f35b3480156104c057600080fd5b506104c961138a565b6040516104d69190612caa565b60405180910390f35b3480156104eb57600080fd5b50610506600480360381019061050191906130c7565b61154f565b6040516105139190612909565b60405180910390f35b34801561052857600080fd5b506105316115e3565b60405161053e9190612cdb565b60405180910390f35b6000634906490660e01b7bffffffffffffffffffffffffffffffffffffffffffffffffffffffff1916827bffffffffffffffffffffffffffffffffffffffffffffffffffffffff191614806105a157506105a0826115ed565b5b9050919050565b6060600080546105b790613136565b80601f01602080910402602001604051908101604052809291908181526020018280546105e390613136565b80156106305780601f1061060557610100808354040283529160200191610630565b820191906000526020600020905b81548152906001019060200180831161061357829003601f168201915b5050505050905090565b6000610645826116cf565b5061064f82611757565b9050919050565b6106688282610663611794565b61179c565b5050565b600073ffffffffffffffffffffffffffffffffffffffff168273ffffffffffffffffffffffffffffffffffffffff16036106de5760006040517f64a0ae920000000000000000000000000000000000000000000000000000000081526004016106d59190612a7a565b60405180910390fd5b60006106f283836106ed611794565b6117ae565b90508373ffffffffffffffffffffffffffffffffffffffff168173ffffffffffffffffffffffffffffffffffffffff1614610768578382826040517f64283d7b00000000000000000000000000000000000000000000000000000000815260040161075f93929190613167565b60405180910390fd5b50505050565b610789838383604051806020016040528060008152506110b2565b505050565b606060006008549050600080600080600090505b848110156108b5573373ffffffffffffffffffffffffffffffffffffffff16600b60006001846107d291906131cd565b815260200190815260200160002060010160009054906101000a900473ffffffffffffffffffffffffffffffffffffffff1673ffffffffffffffffffffffffffffffffffffffff16148061089357503373ffffffffffffffffffffffffffffffffffffffff16600b600060018461084991906131cd565b815260200190815260200160002060020160009054906101000a900473ffffffffffffffffffffffffffffffffffffffff1673ffffffffffffffffffffffffffffffffffffffff16145b156108a8576001846108a591906131cd565b93505b80806001019150506107a2565b5060008367ffffffffffffffff8111156108d2576108d1612d2d565b5b60405190808252806020026020018201604052801561090b57816020015b6108f86127f8565b8152602001906001900390816108f05790505b50905060005b85811015610b50573373ffffffffffffffffffffffffffffffffffffffff16600b600060018461094191906131cd565b815260200190815260200160002060010160009054906101000a900473ffffffffffffffffffffffffffffffffffffffff1673ffffffffffffffffffffffffffffffffffffffff161480610a0257503373ffffffffffffffffffffffffffffffffffffffff16600b60006001846109b891906131cd565b815260200190815260200160002060020160009054906101000a900473ffffffffffffffffffffffffffffffffffffffff1673ffffffffffffffffffffffffffffffffffffffff16145b15610b4357600181610a1491906131cd565b92506000600b60008581526020019081526020016000209050806040518060a0016040529081600082015481526020016001820160009054906101000a900473ffffffffffffffffffffffffffffffffffffffff1673ffffffffffffffffffffffffffffffffffffffff1673ffffffffffffffffffffffffffffffffffffffff1681526020016002820160009054906101000a900473ffffffffffffffffffffffffffffffffffffffff1673ffffffffffffffffffffffffffffffffffffffff1673ffffffffffffffffffffffffffffffffffffffff168152602001600382015481526020016004820160009054906101000a900460ff161515151581525050838681518110610b2757610b26613201565b5b6020026020010181905250600185610b3f91906131cd565b9450505b8080600101915050610911565b50809550505050505090565b6000610b67826116cf565b9050919050565b6000600a54905090565b60008073ffffffffffffffffffffffffffffffffffffffff168273ffffffffffffffffffffffffffffffffffffffff1603610beb5760006040517f89c62b64000000000000000000000000000000000000000000000000000000008152600401610be29190612a7a565b60405180910390fd5b600360008373ffffffffffffffffffffffffffffffffffffffff1673ffffffffffffffffffffffffffffffffffffffff168152602001908152602001600020549050919050565b6000600a543414610c78576040517f08c379a0000000000000000000000000000000000000000000000000000000008152600401610c6f906132a2565b60405180910390fd5b60008211610cbb576040517f08c379a0000000000000000000000000000000000000000000000000000000008152600401610cb290613334565b60405180910390fd5b60086000815480929190610cce90613354565b919050555060006008549050610ce433826119c8565b610cee81856119e6565b610cf88184611a42565b8091505092915050565b610d0a6127f8565b600b60008381526020019081526020016000206040518060a0016040529081600082015481526020016001820160009054906101000a900473ffffffffffffffffffffffffffffffffffffffff1673ffffffffffffffffffffffffffffffffffffffff1673ffffffffffffffffffffffffffffffffffffffff1681526020016002820160009054906101000a900473ffffffffffffffffffffffffffffffffffffffff1673ffffffffffffffffffffffffffffffffffffffff1673ffffffffffffffffffffffffffffffffffffffff168152602001600382015481526020016004820160009054906101000a900460ff1615151515815250509050919050565b606060018054610e1990613136565b80601f0160208091040260200160405190810160405280929190818152602001828054610e4590613136565b8015610e925780601f10610e6757610100808354040283529160200191610e92565b820191906000526020600020905b815481529060010190602001808311610e7557829003601f168201915b5050505050905090565b6000600b60008381526020019081526020016000206003015490506000600b600084815260200190815260200160002060020160009054906101000a900473ffffffffffffffffffffffffffffffffffffffff169050813414610f34576040517f08c379a0000000000000000000000000000000000000000000000000000000008152600401610f2b9061340e565b60405180910390fd5b6001600b600085815260200190815260200160002060040160006101000a81548160ff02191690831515021790555033600b600085815260200190815260200160002060020160006101000a81548173ffffffffffffffffffffffffffffffffffffffff021916908373ffffffffffffffffffffffffffffffffffffffff16021790555060096000815480929190610fcb90613354565b9190505550610fdb303385611bbe565b610fe53084610656565b600760009054906101000a900473ffffffffffffffffffffffffffffffffffffffff1673ffffffffffffffffffffffffffffffffffffffff166108fc600a549081150290604051600060405180830381858888f1935050505015801561104f573d6000803e3d6000fd5b508073ffffffffffffffffffffffffffffffffffffffff166108fc349081150290604051600060405180830381858888f19350505050158015611096573d6000803e3d6000fd5b50505050565b6110ae6110a7611794565b8383611d2b565b5050565b6110bd84848461066c565b6110c984848484611e9a565b50505050565b3373ffffffffffffffffffffffffffffffffffffffff16600760009054906101000a900473ffffffffffffffffffffffffffffffffffffffff1673ffffffffffffffffffffffffffffffffffffffff161461115f576040517f08c379a0000000000000000000000000000000000000000000000000000000008152600401611156906134a0565b60405180910390fd5b80600a8190555050565b6060611174826116cf565b50600060066000848152602001908152602001600020805461119590613136565b80601f01602080910402602001604051908101604052809291908181526020018280546111c190613136565b801561120e5780601f106111e35761010080835404028352916020019161120e565b820191906000526020600020905b8154815290600101906020018083116111f157829003601f168201915b50505050509050600061121f612051565b90506000815103611234578192505050611277565b6000825111156112695780826040516020016112519291906134fc565b60405160208183030381529060405292505050611277565b61127284612068565b925050505b919050565b6112846127f8565b60006008549050600b60008281526020019081526020016000206040518060a0016040529081600082015481526020016001820160009054906101000a900473ffffffffffffffffffffffffffffffffffffffff1673ffffffffffffffffffffffffffffffffffffffff1673ffffffffffffffffffffffffffffffffffffffff1681526020016002820160009054906101000a900473ffffffffffffffffffffffffffffffffffffffff1673ffffffffffffffffffffffffffffffffffffffff1673ffffffffffffffffffffffffffffffffffffffff168152602001600382015481526020016004820160009054906101000a900460ff16151515158152505091505090565b60606000600854905060008167ffffffffffffffff8111156113af576113ae612d2d565b5b6040519080825280602002602001820160405280156113e857816020015b6113d56127f8565b8152602001906001900390816113cd5790505b50905060008080600090505b848110156115445760018161140991906131cd565b91506000600b60008481526020019081526020016000209050806040518060a0016040529081600082015481526020016001820160009054906101000a900473ffffffffffffffffffffffffffffffffffffffff1673ffffffffffffffffffffffffffffffffffffffff1673ffffffffffffffffffffffffffffffffffffffff1681526020016002820160009054906101000a900473ffffffffffffffffffffffffffffffffffffffff1673ffffffffffffffffffffffffffffffffffffffff1673ffffffffffffffffffffffffffffffffffffffff168152602001600382015481526020016004820160009054906101000a900460ff16151515158152505085858151811061151c5761151b613201565b5b602002602001018190525060018461153491906131cd565b93505080806001019150506113f4565b508294505050505090565b6000600560008473ffffffffffffffffffffffffffffffffffffffff1673ffffffffffffffffffffffffffffffffffffffff16815260200190815260200160002060008373ffffffffffffffffffffffffffffffffffffffff1673ffffffffffffffffffffffffffffffffffffffff16815260200190815260200160002060009054906101000a900460ff16905092915050565b6000600854905090565b60007f80ac58cd000000000000000000000000000000000000000000000000000000007bffffffffffffffffffffffffffffffffffffffffffffffffffffffff1916827bffffffffffffffffffffffffffffffffffffffffffffffffffffffff191614806116b857507f5b5e139f000000000000000000000000000000000000000000000000000000007bffffffffffffffffffffffffffffffffffffffffffffffffffffffff1916827bffffffffffffffffffffffffffffffffffffffffffffffffffffffff1916145b806116c857506116c7826120d1565b5b9050919050565b6000806116db8361213b565b9050600073ffffffffffffffffffffffffffffffffffffffff168173ffffffffffffffffffffffffffffffffffffffff160361174e57826040517f7e2732890000000000000000000000000000000000000000000000000000000081526004016117459190612cdb565b60405180910390fd5b80915050919050565b60006004600083815260200190815260200160002060009054906101000a900473ffffffffffffffffffffffffffffffffffffffff169050919050565b600033905090565b6117a98383836001612178565b505050565b6000806117ba8461213b565b9050600073ffffffffffffffffffffffffffffffffffffffff168373ffffffffffffffffffffffffffffffffffffffff16146117fc576117fb81848661233d565b5b600073ffffffffffffffffffffffffffffffffffffffff168173ffffffffffffffffffffffffffffffffffffffff161461188d5761183e600085600080612178565b6001600360008373ffffffffffffffffffffffffffffffffffffffff1673ffffffffffffffffffffffffffffffffffffffff168152602001908152602001600020600082825403925050819055505b600073ffffffffffffffffffffffffffffffffffffffff168573ffffffffffffffffffffffffffffffffffffffff1614611910576001600360008773ffffffffffffffffffffffffffffffffffffffff1673ffffffffffffffffffffffffffffffffffffffff168152602001908152602001600020600082825401925050819055505b846002600086815260200190815260200160002060006101000a81548173ffffffffffffffffffffffffffffffffffffffff021916908373ffffffffffffffffffffffffffffffffffffffff160217905550838573ffffffffffffffffffffffffffffffffffffffff168273ffffffffffffffffffffffffffffffffffffffff167fddf252ad1be2c89b69c2b068fc378daa952ba7f163c4a11628f55a4df523b3ef60405160405180910390a4809150509392505050565b6119e2828260405180602001604052806000815250612401565b5050565b80600660008481526020019081526020016000209081611a0691906136cc565b507ff8e1a15aba9398e019f0b49df1a4fde98ee17ae345cb5f6b5e2c27f5033e8ce782604051611a369190612cdb565b60405180910390a15050565b6040518060a001604052808381526020013073ffffffffffffffffffffffffffffffffffffffff1681526020013373ffffffffffffffffffffffffffffffffffffffff16815260200182815260200160011515815250600b60008481526020019081526020016000206000820151816000015560208201518160010160006101000a81548173ffffffffffffffffffffffffffffffffffffffff021916908373ffffffffffffffffffffffffffffffffffffffff16021790555060408201518160020160006101000a81548173ffffffffffffffffffffffffffffffffffffffff021916908373ffffffffffffffffffffffffffffffffffffffff1602179055506060820151816003015560808201518160040160006101000a81548160ff021916908315150217905550905050611b7b333084611bbe565b817f9339409317fd01fabff48b703019016f49159bacc801ae872d2ca637d226e4c03033846001604051611bb2949392919061379e565b60405180910390a25050565b600073ffffffffffffffffffffffffffffffffffffffff168273ffffffffffffffffffffffffffffffffffffffff1603611c305760006040517f64a0ae92000000000000000000000000000000000000000000000000000000008152600401611c279190612a7a565b60405180910390fd5b6000611c3e838360006117ae565b9050600073ffffffffffffffffffffffffffffffffffffffff168173ffffffffffffffffffffffffffffffffffffffff1603611cb157816040517f7e273289000000000000000000000000000000000000000000000000000000008152600401611ca89190612cdb565b60405180910390fd5b8373ffffffffffffffffffffffffffffffffffffffff168173ffffffffffffffffffffffffffffffffffffffff1614611d25578382826040517f64283d7b000000000000000000000000000000000000000000000000000000008152600401611d1c93929190613167565b60405180910390fd5b50505050565b600073ffffffffffffffffffffffffffffffffffffffff168273ffffffffffffffffffffffffffffffffffffffff1603611d9c57816040517f5b08ba18000000000000000000000000000000000000000000000000000000008152600401611d939190612a7a565b60405180910390fd5b80600560008573ffffffffffffffffffffffffffffffffffffffff1673ffffffffffffffffffffffffffffffffffffffff16815260200190815260200160002060008473ffffffffffffffffffffffffffffffffffffffff1673ffffffffffffffffffffffffffffffffffffffff16815260200190815260200160002060006101000a81548160ff0219169083151502179055508173ffffffffffffffffffffffffffffffffffffffff168373ffffffffffffffffffffffffffffffffffffffff167f17307eab39ab6107e8899845ad3d59bd9653f200f220920489ca2b5937696c3183604051611e8d9190612909565b60405180910390a3505050565b60008373ffffffffffffffffffffffffffffffffffffffff163b111561204b578273ffffffffffffffffffffffffffffffffffffffff1663150b7a02611ede611794565b8685856040518563ffffffff1660e01b8152600401611f009493929190613838565b6020604051808303816000875af1925050508015611f3c57506040513d601f19601f82011682018060405250810190611f399190613899565b60015b611fc0573d8060008114611f6c576040519150601f19603f3d011682016040523d82523d6000602084013e611f71565b606091505b506000815103611fb857836040517f64a0ae92000000000000000000000000000000000000000000000000000000008152600401611faf9190612a7a565b60405180910390fd5b805181602001fd5b63150b7a0260e01b7bffffffffffffffffffffffffffffffffffffffffffffffffffffffff1916817bffffffffffffffffffffffffffffffffffffffffffffffffffffffff19161461204957836040517f64a0ae920000000000000000000000000000000000000000000000000000000081526004016120409190612a7a565b60405180910390fd5b505b50505050565b606060405180602001604052806000815250905090565b6060612073826116cf565b50600061207e612051565b9050600081511161209e57604051806020016040528060008152506120c9565b806120a88461241d565b6040516020016120b99291906134fc565b6040516020818303038152906040525b915050919050565b60007f01ffc9a7000000000000000000000000000000000000000000000000000000007bffffffffffffffffffffffffffffffffffffffffffffffffffffffff1916827bffffffffffffffffffffffffffffffffffffffffffffffffffffffff1916149050919050565b60006002600083815260200190815260200160002060009054906101000a900473ffffffffffffffffffffffffffffffffffffffff169050919050565b80806121b15750600073ffffffffffffffffffffffffffffffffffffffff168273ffffffffffffffffffffffffffffffffffffffff1614155b156122e55760006121c1846116cf565b9050600073ffffffffffffffffffffffffffffffffffffffff168373ffffffffffffffffffffffffffffffffffffffff161415801561222c57508273ffffffffffffffffffffffffffffffffffffffff168173ffffffffffffffffffffffffffffffffffffffff1614155b801561223f575061223d818461154f565b155b1561228157826040517fa9fbf51f0000000000000000000000000000000000000000000000000000000081526004016122789190612a7a565b60405180910390fd5b81156122e357838573ffffffffffffffffffffffffffffffffffffffff168273ffffffffffffffffffffffffffffffffffffffff167f8c5be1e5ebec7d5bd14f71427d1e84f3dd0314c0f7b2291e5b200ac8c7c3b92560405160405180910390a45b505b836004600085815260200190815260200160002060006101000a81548173ffffffffffffffffffffffffffffffffffffffff021916908373ffffffffffffffffffffffffffffffffffffffff16021790555050505050565b6123488383836124eb565b6123fc57600073ffffffffffffffffffffffffffffffffffffffff168373ffffffffffffffffffffffffffffffffffffffff16036123bd57806040517f7e2732890000000000000000000000000000000000000000000000000000000081526004016123b49190612cdb565b60405180910390fd5b81816040517f177e802f0000000000000000000000000000000000000000000000000000000081526004016123f39291906138c6565b60405180910390fd5b505050565b61240b83836125ac565b6124186000848484611e9a565b505050565b60606000600161242c846126a5565b01905060008167ffffffffffffffff81111561244b5761244a612d2d565b5b6040519080825280601f01601f19166020018201604052801561247d5781602001600182028036833780820191505090505b509050600082602001820190505b6001156124e0578080600190039150507f3031323334353637383961626364656600000000000000000000000000000000600a86061a8153600a85816124d4576124d36138ef565b5b0494506000850361248b575b819350505050919050565b60008073ffffffffffffffffffffffffffffffffffffffff168373ffffffffffffffffffffffffffffffffffffffff16141580156125a357508273ffffffffffffffffffffffffffffffffffffffff168473ffffffffffffffffffffffffffffffffffffffff1614806125645750612563848461154f565b5b806125a257508273ffffffffffffffffffffffffffffffffffffffff1661258a83611757565b73ffffffffffffffffffffffffffffffffffffffff16145b5b90509392505050565b600073ffffffffffffffffffffffffffffffffffffffff168273ffffffffffffffffffffffffffffffffffffffff160361261e5760006040517f64a0ae920000000000000000000000000000000000000000000000000000000081526004016126159190612a7a565b60405180910390fd5b600061262c838360006117ae565b9050600073ffffffffffffffffffffffffffffffffffffffff168173ffffffffffffffffffffffffffffffffffffffff16146126a05760006040517f73c6ac6e0000000000000000000000000000000000000000000000000000000081526004016126979190612a7a565b60405180910390fd5b505050565b600080600090507a184f03e93ff9f4daa797ed6e38ed64bf6a1f0100000000000000008310612703577a184f03e93ff9f4daa797ed6e38ed64bf6a1f01000000000000000083816126f9576126f86138ef565b5b0492506040810190505b6d04ee2d6d415b85acef81000000008310612740576d04ee2d6d415b85acef81000000008381612736576127356138ef565b5b0492506020810190505b662386f26fc10000831061276f57662386f26fc100008381612765576127646138ef565b5b0492506010810190505b6305f5e1008310612798576305f5e100838161278e5761278d6138ef565b5b0492506008810190505b61271083106127bd5761271083816127b3576127b26138ef565b5b0492506004810190505b606483106127e057606483816127d6576127d56138ef565b5b0492506002810190505b600a83106127ef576001810190505b80915050919050565b6040518060a0016040528060008152602001600073ffffffffffffffffffffffffffffffffffffffff168152602001600073ffffffffffffffffffffffffffffffffffffffff168152602001600081526020016000151581525090565b6000604051905090565b600080fd5b600080fd5b60007fffffffff0000000000000000000000000000000000000000000000000000000082169050919050565b61289e81612869565b81146128a957600080fd5b50565b6000813590506128bb81612895565b92915050565b6000602082840312156128d7576128d661285f565b5b60006128e5848285016128ac565b91505092915050565b60008115159050919050565b612903816128ee565b82525050565b600060208201905061291e60008301846128fa565b92915050565b600081519050919050565b600082825260208201905092915050565b60005b8381101561295e578082015181840152602081019050612943565b60008484015250505050565b6000601f19601f8301169050919050565b600061298682612924565b612990818561292f565b93506129a0818560208601612940565b6129a98161296a565b840191505092915050565b600060208201905081810360008301526129ce818461297b565b905092915050565b6000819050919050565b6129e9816129d6565b81146129f457600080fd5b50565b600081359050612a06816129e0565b92915050565b600060208284031215612a2257612a2161285f565b5b6000612a30848285016129f7565b91505092915050565b600073ffffffffffffffffffffffffffffffffffffffff82169050919050565b6000612a6482612a39565b9050919050565b612a7481612a59565b82525050565b6000602082019050612a8f6000830184612a6b565b92915050565b612a9e81612a59565b8114612aa957600080fd5b50565b600081359050612abb81612a95565b92915050565b60008060408385031215612ad857612ad761285f565b5b6000612ae685828601612aac565b9250506020612af7858286016129f7565b9150509250929050565b600080600060608486031215612b1a57612b1961285f565b5b6000612b2886828701612aac565b9350506020612b3986828701612aac565b9250506040612b4a868287016129f7565b9150509250925092565b600081519050919050565b600082825260208201905092915050565b6000819050602082019050919050565b612b89816129d6565b82525050565b6000612b9a82612a39565b9050919050565b612baa81612b8f565b82525050565b612bb9816128ee565b82525050565b60a082016000820151612bd56000850182612b80565b506020820151612be86020850182612ba1565b506040820151612bfb6040850182612ba1565b506060820151612c0e6060850182612b80565b506080820151612c216080850182612bb0565b50505050565b6000612c338383612bbf565b60a08301905092915050565b6000602082019050919050565b6000612c5782612b54565b612c618185612b5f565b9350612c6c83612b70565b8060005b83811015612c9d578151612c848882612c27565b9750612c8f83612c3f565b925050600181019050612c70565b5085935050505092915050565b60006020820190508181036000830152612cc48184612c4c565b905092915050565b612cd5816129d6565b82525050565b6000602082019050612cf06000830184612ccc565b92915050565b600060208284031215612d0c57612d0b61285f565b5b6000612d1a84828501612aac565b91505092915050565b600080fd5b600080fd5b7f4e487b7100000000000000000000000000000000000000000000000000000000600052604160045260246000fd5b612d658261296a565b810181811067ffffffffffffffff82111715612d8457612d83612d2d565b5b80604052505050565b6000612d97612855565b9050612da38282612d5c565b919050565b600067ffffffffffffffff821115612dc357612dc2612d2d565b5b612dcc8261296a565b9050602081019050919050565b82818337600083830152505050565b6000612dfb612df684612da8565b612d8d565b905082815260208101848484011115612e1757612e16612d28565b5b612e22848285612dd9565b509392505050565b600082601f830112612e3f57612e3e612d23565b5b8135612e4f848260208601612de8565b91505092915050565b60008060408385031215612e6f57612e6e61285f565b5b600083013567ffffffffffffffff811115612e8d57612e8c612864565b5b612e9985828601612e2a565b9250506020612eaa858286016129f7565b9150509250929050565b60a082016000820151612eca6000850182612b80565b506020820151612edd6020850182612ba1565b506040820151612ef06040850182612ba1565b506060820151612f036060850182612b80565b506080820151612f166080850182612bb0565b50505050565b600060a082019050612f316000830184612eb4565b92915050565b612f40816128ee565b8114612f4b57600080fd5b50565b600081359050612f5d81612f37565b92915050565b60008060408385031215612f7a57612f7961285f565b5b6000612f8885828601612aac565b9250506020612f9985828601612f4e565b9150509250929050565b600067ffffffffffffffff821115612fbe57612fbd612d2d565b5b612fc78261296a565b9050602081019050919050565b6000612fe7612fe284612fa3565b612d8d565b90508281526020810184848401111561300357613002612d28565b5b61300e848285612dd9565b509392505050565b600082601f83011261302b5761302a612d23565b5b813561303b848260208601612fd4565b91505092915050565b6000806000806080858703121561305e5761305d61285f565b5b600061306c87828801612aac565b945050602061307d87828801612aac565b935050604061308e878288016129f7565b925050606085013567ffffffffffffffff8111156130af576130ae612864565b5b6130bb87828801613016565b91505092959194509250565b600080604083850312156130de576130dd61285f565b5b60006130ec85828601612aac565b92505060206130fd85828601612aac565b9150509250929050565b7f4e487b7100000000000000000000000000000000000000000000000000000000600052602260045260246000fd5b6000600282049050600182168061314e57607f821691505b60208210810361316157613160613107565b5b50919050565b600060608201905061317c6000830186612a6b565b6131896020830185612ccc565b6131966040830184612a6b565b949350505050565b7f4e487b7100000000000000000000000000000000000000000000000000000000600052601160045260246000fd5b60006131d8826129d6565b91506131e3836129d6565b92508282019050808211156131fb576131fa61319e565b5b92915050565b7f4e487b7100000000000000000000000000000000000000000000000000000000600052603260045260246000fd5b7f506c65617365207375626d697420746865206c697374696e672066656520696e60008201527f206f7264657220746f206c69737420796f7572204e4654000000000000000000602082015250565b600061328c60378361292f565b915061329782613230565b604082019050919050565b600060208201905081810360008301526132bb8161327f565b9050919050565b7f506c656173652073657420612070726963652067726561746572207468616e2060008201527f3000000000000000000000000000000000000000000000000000000000000000602082015250565b600061331e60218361292f565b9150613329826132c2565b604082019050919050565b6000602082019050818103600083015261334d81613311565b9050919050565b600061335f826129d6565b91507fffffffffffffffffffffffffffffffffffffffffffffffffffffffffffffffff82036133915761339061319e565b5b600182019050919050565b7f506c65617365207375626d6974207468652061736b696e67207072696365206960008201527f6e206f7264657220746f20636f6d706c65746520746865207075726368617365602082015250565b60006133f860408361292f565b91506134038261339c565b604082019050919050565b60006020820190508181036000830152613427816133eb565b9050919050565b7f4f6e6c79206f776e65722063616e20757064617465206c697374696e6720707260008201527f6963650000000000000000000000000000000000000000000000000000000000602082015250565b600061348a60238361292f565b91506134958261342e565b604082019050919050565b600060208201905081810360008301526134b98161347d565b9050919050565b600081905092915050565b60006134d682612924565b6134e081856134c0565b93506134f0818560208601612940565b80840191505092915050565b600061350882856134cb565b915061351482846134cb565b91508190509392505050565b60008190508160005260206000209050919050565b60006020601f8301049050919050565b600082821b905092915050565b6000600883026135827fffffffffffffffffffffffffffffffffffffffffffffffffffffffffffffffff82613545565b61358c8683613545565b95508019841693508086168417925050509392505050565b6000819050919050565b60006135c96135c46135bf846129d6565b6135a4565b6129d6565b9050919050565b6000819050919050565b6135e3836135ae565b6135f76135ef826135d0565b848454613552565b825550505050565b600090565b61360c6135ff565b6136178184846135da565b505050565b5b8181101561363b57613630600082613604565b60018101905061361d565b5050565b601f8211156136805761365181613520565b61365a84613535565b81016020851015613669578190505b61367d61367585613535565b83018261361c565b50505b505050565b600082821c905092915050565b60006136a360001984600802613685565b1980831691505092915050565b60006136bc8383613692565b9150826002028217905092915050565b6136d582612924565b67ffffffffffffffff8111156136ee576136ed612d2d565b5b6136f88254613136565b61370382828561363f565b600060209050601f8311600181146137365760008415613724578287015190505b61372e85826136b0565b865550613796565b601f19841661374486613520565b60005b8281101561376c57848901518255600182019150602085019450602081019050613747565b868310156137895784890151613785601f891682613692565b8355505b6001600288020188555050505b505050505050565b60006080820190506137b36000830187612a6b565b6137c06020830186612a6b565b6137cd6040830185612ccc565b6137da60608301846128fa565b95945050505050565b600081519050919050565b600082825260208201905092915050565b600061380a826137e3565b61381481856137ee565b9350613824818560208601612940565b61382d8161296a565b840191505092915050565b600060808201905061384d6000830187612a6b565b61385a6020830186612a6b565b6138676040830185612ccc565b818103606083015261387981846137ff565b905095945050505050565b60008151905061389381612895565b92915050565b6000602082840312156138af576138ae61285f565b5b60006138bd84828501613884565b91505092915050565b60006040820190506138db6000830185612a6b565b6138e86020830184612ccc565b9392505050565b7f4e487b7100000000000000000000000000000000000000000000000000000000600052601260045260246000fdfea26469706673582212201923e64af229751b8dbba8d87042e28a554b126cd89b950b53530e81afbacad864736f6c63430008180033",
    "linkReferences": {},
    "deployedLinkReferences": {}
}